:03000000020618DD
:0C061800787FE4F6D8FD75812102065FB2
:10057B007061676520300061646420312C302C255C
:10058B00640061646420312C312C2564007F858BE1
:10059B0092989EA4AAB0B6BBC1C6CBD0D5D9DDE28A
:1005AB00E5E9ECEFF2F5F7F9FBFCFDFEFEFEFEFED6
:1005BB00FDFCFBF9F7F5F2EFECE9E5E2DDD9D5D07F
:1005CB00CBC6C1BBB6B0AAA49E98928B857F79731C
:1005DB006C66605A544E48433D38332E2925211CF6
:1005EB001915120F0C09070503020100000000008A
:1005FB000102030507090C0F1215191C2125292EC1
:0D060B0033383D43484E545A60666C737995
:1006D80060280002787878787878787878787878E8
:1006E80078787878787878781414141414141414A2
:0C06F80014141414141414141414141406
:10075200758920758DF7758BF7759850D28ED2AC4E
:010762002274
:0E077200C2ACC2998F993099FDC299D2AC22C7
:0606A4007B017A007936AB
:0B06AA0090008EEBF0A3EAF0A3E9F053
:1006B500E4FDFC90008EE0FBA3E0FAA3E0F98D8257
:1006C5008C831204C7FF600A1207720DBD00010C6E
:0206D50080E1C2
:0106D7002200
:0B0780007FFF1207721207720207725F
:10072C00E4FDFCC3ED9FEE6480F8EC6480985015FA
:10073C00E4FBFA0BBB00010ABA03F8BBE8F50DBDEC
:05074C0000010C80DE3D
:010751002285
:0F0763007F0A7E0012072C1207807F0A02072CE4
:10036800E4900082F0A3F0900000F0A37432F090C3
:10037800002AE4F0A37430F090007AE4F0A3740C3F
:10038800F0900078E4F0A3740FF090002EE4F0A34E
:100398007407F0A3E4F0A37402F0900034E4F0A32F
:1003A8007410F0E4900032F0A3F0900080F0A3F015
:1003B80090002CF0A3F0900084F0A3F053B1FD431B
:1003C800B2021207521207637BFF7A05797B120685
:1003D800AA1207807FD07E0712072C90008CE4F0C9
:1003E800A37420F0E490008AF0A3F090008AE0FE65
:1003F800A3E0FFC39480EE6480948050DE74982F4D
:10040800F58274053EF583E49375F003842428FE91
:10041800E433900086F0A3CEF090008CE475F001F0
:100428001204F4FE749825F0F58274053EF583E411
:100438009375F003842428FEE433900088F0A3CE5B
:10044800F0C390008DE0948090008CE064809480EC
:100458004004E4F0A3F090009174FFF0A37405F059
:10046800A37482F0900086E0FFA3E0900094CFF0A0
:10047800A3EFF07B017A0079361200681206A41205
:10048800078090009174FFF0A37405F0A3748DF0B9
:10049800900088E0FFA3E0900094CFF0A3EFF07BFA
:1004A800017A0079361200681206A41207809000BB
:0F04B8008BE004F0700690008AE004F00203F37A
:10062400020368E493A3F8E493A34003F68001F281
:1006340008DFF48029E493A3F85407240CC8C333D7
:10064400C4540F4420C8834004F456800146F6DFA6
:10065400E4800B01020408102040809006D8E47E58
:10066400019360BCA3FF543F30E509541FFEE4939B
:10067400A360010ECF54C025E060A840B8E493A362
:10068400FAE493A3F8E493A3C8C582C8CAC583CA8D
:10069400F0A3C8C582C8CAC583CADFE9DEE780BE45
:0107040000F4
:1004C700BB010CE58229F582E5833AF583E02250EA
:1004D70006E92582F8E622BBFE06E92582F8E22234
:0D04E700E58229F582E5833AF583E493224E
:1004F400A3F8E0C5F025F0F0E582158270021583BB
:06050400E0C838F0E82217
:10000300E5082491F582E43400F583E005082290A5
:10001300008E300703900091E475F001120535025C
:10002300050A2000E97F2ED2008018EF540F249098
:10003300D43440D4FF30040BEF24BFB41A00500370
:100043002461FFE50960021509050CE50C70020542
:100053000B30070E90008EE475F001120535EF02A8
:1000630005230207057403D2078003E4C207F508DA
:1000730090008E12054CE4F509F50BF50CE50960CB
:10008300077F2012004680F5750AFFC201C200C235
:1000930002C203C205C206C208120012FF700D306D
:1000A30007057F00120057AF0CAE0B22B4255FC2C9
:1000B300D5C204120012FF24D0B40A00501A75F0FE
:1000C3000A780930D50508B6FF0106C6A426F6202E
:1000D300D5047002D20380D924CFB41A00EF5004A0
:1000E300C2E5D204020258D20180C6D20080C0D237
:1000F3000280BCD2D580BAD20580B47F20120046DC
:100103002002077401B5090040F1120003FF120039
:1001130046020080D208D2068095120003FB12002B
:1001230003FA120003F94A4B700679297A037BFF1D
:1001330020022EE509602A7E008E82758300120458
:10014300C760060EEE650A70F0C2D5EBC0E0EAC0E8
:10015300E0E9C0E0EE12029FD0E0F9D0E0FAD0E08F
:10016300FB12050AFF60AAEBC0E0EAC0E0E9C0E0C9
:10017300120046D0E02401F9D0E03400FAD0E0FBCD
:10018300E50A0460DCD50AD980877BFF7A02799B74
:10019300D202809C791080027908C206C2088008C6
:1001A300D2D5790A8004790AC2D5E50A047002F52A
:1001B3000AE4FAFDFEFF120003FC7B082001131280
:1001C3000003FD7B1030000A120003FE120003FF40
:1001D3007B20EC3382D592D55013C3E43000069FC5
:1001E300FFE49EFEE42001039DFDE49CFCE4CBF8C8
:1001F300C201EC700CCFCECDCCE824F8F870F380BC
:1002030017C3EF33FFEE33FEED33FDEC33FCEB337B
:10021300FB994002FB0FD8E9EB300105F8D0E0C4AD
:1002230048B201C0E00AEC4D4E4F78207B0070C20B
:10023300EAB50A0040BCC0E01202A1D0F0D0E02031
:100243000104C4C0E0C4B201C0F012002FD0F0D545
:10025300F0EB020080120555011D5301975800EE83
:100263004C00EA42019B4F01A34401A3490103430C
:0802730001A955018D46018D22
:10027B0045018D4703495000F22D00F62E01192B35
:10028B0000FA2301172003322A00B24800000111A3
:10029B003F3F3F00790AA2D5200314300509B9105E
:1002AB00020404B9080104A2D5200602500104205F
:1002BB0002689202B509005034C0E07F2030031968
:1002CB007F30A20272067205500F1202F8C202C2F0
:1002DB0006C205C2087F30800F300503E9C0E0126B
:1002EB000046300503D0E0F9D0E0B509CC30051756
:1002FB007F30B9100C1200467F583004077F78808E
:10030B0003B908031200463002057F2D0200467F19
:10031B00202008F87F2B2006F322920280CF286E34
:10032B00756C6C2900D2011200033001F8C2017800
:10033B000930D50108F60200B22D5043495812007E
:10034B00032403B405004001E490034493120037E7
:0D035B00743A120037D203750904020197AD
:10050A00BB010689828A83E0225002E722BBFE02EF
:09051A00E32289828A83E4932222
:10052300BB010689828A83F0225002F722BBFE01B7
:02053300F322B1
:10053500F8E0FBA3A3E0F925F0F0E582158270024F
:070545001583E0FA38F022F3
:09054C00EBF0A3EAF0A3E9F022B0
:10055500D083D082F8E4937012740193700DA3A335
:1005650093F8740193F5828883E473740293686049
:06057500EFA3A3A380DF49
:10070500EFB40A07740D120710740A309811A899EE
:10071500B8130CC2983098FDA899C298B811F63054
:0707250099FDC299F599222C
:00000001FF
